{
  "_format": "hh-sol-artifact-1",
  "contractName": "DAO",
  "sourceName": "contracts/Dao.sol",
  "abi": [
    {
      "anonymous": false,
      "inputs": [
        {
          "indexed": true,
          "internalType": "address",
          "name": "initiator",
          "type": "address"
        },
        {
          "indexed": false,
          "internalType": "bytes32",
          "name": "role",
          "type": "bytes32"
        },
        {
          "indexed": false,
          "internalType": "string",
          "name": "message",
          "type": "string"
        },
        {
          "indexed": true,
          "internalType": "address",
          "name": "beneficiary",
          "type": "address"
        },
        {
          "indexed": false,
          "internalType": "uint256",
          "name": "amount",
          "type": "uint256"
        }
      ],
      "name": "Action",
      "type": "event"
    },
    {
      "anonymous": false,
      "inputs": [
        {
          "indexed": true,
          "internalType": "bytes32",
          "name": "role",
          "type": "bytes32"
        },
        {
          "indexed": true,
          "internalType": "bytes32",
          "name": "previousAdminRole",
          "type": "bytes32"
        },
        {
          "indexed": true,
          "internalType": "bytes32",
          "name": "newAdminRole",
          "type": "bytes32"
        }
      ],
      "name": "RoleAdminChanged",
      "type": "event"
    },
    {
      "anonymous": false,
      "inputs": [
        {
          "indexed": true,
          "internalType": "bytes32",
          "name": "role",
          "type": "bytes32"
        },
        {
          "indexed": true,
          "internalType": "address",
          "name": "account",
          "type": "address"
        },
        {
          "indexed": true,
          "internalType": "address",
          "name": "sender",
          "type": "address"
        }
      ],
      "name": "RoleGranted",
      "type": "event"
    },
    {
      "anonymous": false,
      "inputs": [
        {
          "indexed": true,
          "internalType": "bytes32",
          "name": "role",
          "type": "bytes32"
        },
        {
          "indexed": true,
          "internalType": "address",
          "name": "account",
          "type": "address"
        },
        {
          "indexed": true,
          "internalType": "address",
          "name": "sender",
          "type": "address"
        }
      ],
      "name": "RoleRevoked",
      "type": "event"
    },
    {
      "inputs": [],
      "name": "DEFAULT_ADMIN_ROLE",
      "outputs": [
        {
          "internalType": "bytes32",
          "name": "",
          "type": "bytes32"
        }
      ],
      "stateMutability": "view",
      "type": "function"
    },
    {
      "inputs": [
        {
          "internalType": "uint256",
          "name": "proposalId",
          "type": "uint256"
        },
        {
          "internalType": "bool",
          "name": "chosen",
          "type": "bool"
        }
      ],
      "name": "Vote",
      "outputs": [
        {
          "components": [
            {
              "internalType": "address",
              "name": "voter",
              "type": "address"
            },
            {
              "internalType": "uint256",
              "name": "timestamp",
              "type": "uint256"
            },
            {
              "internalType": "bool",
              "name": "chosen",
              "type": "bool"
            }
          ],
          "internalType": "struct DAO.VotedStruct",
          "name": "",
          "type": "tuple"
        }
      ],
      "stateMutability": "nonpayable",
      "type": "function"
    },
    {
      "inputs": [],
      "name": "contribute",
      "outputs": [],
      "stateMutability": "payable",
      "type": "function"
    },
    {
      "inputs": [
        {
          "internalType": "string",
          "name": "title",
          "type": "string"
        },
        {
          "internalType": "string",
          "name": "description",
          "type": "string"
        },
        {
          "internalType": "address",
          "name": "beneficiary",
          "type": "address"
        },
        {
          "internalType": "uint256",
          "name": "amount",
          "type": "uint256"
        }
      ],
      "name": "createProposal",
      "outputs": [],
      "stateMutability": "nonpayable",
      "type": "function"
    },
    {
      "inputs": [],
      "name": "daoBalance",
      "outputs": [
        {
          "internalType": "uint256",
          "name": "",
          "type": "uint256"
        }
      ],
      "stateMutability": "view",
      "type": "function"
    },
    {
      "inputs": [],
      "name": "getBalance",
      "outputs": [
        {
          "internalType": "uint256",
          "name": "",
          "type": "uint256"
        }
      ],
      "stateMutability": "view",
      "type": "function"
    },
    {
      "inputs": [],
      "name": "getContributorBalance",
      "outputs": [
        {
          "internalType": "uint256",
          "name": "",
          "type": "uint256"
        }
      ],
      "stateMutability": "view",
      "type": "function"
    },
    {
      "inputs": [
        {
          "internalType": "uint256",
          "name": "proposalId",
          "type": "uint256"
        }
      ],
      "name": "getProposal",
      "outputs": [
        {
          "components": [
            {
              "internalType": "uint256",
              "name": "id",
              "type": "uint256"
            },
            {
              "internalType": "uint256",
              "name": "amount",
              "type": "uint256"
            },
            {
              "internalType": "uint256",
              "name": "duration",
              "type": "uint256"
            },
            {
              "internalType": "uint256",
              "name": "upvotes",
              "type": "uint256"
            },
            {
              "internalType": "uint256",
              "name": "downvotes",
              "type": "uint256"
            },
            {
              "internalType": "string",
              "name": "title",
              "type": "string"
            },
            {
              "internalType": "string",
              "name": "description",
              "type": "string"
            },
            {
              "internalType": "bool",
              "name": "passed",
              "type": "bool"
            },
            {
              "internalType": "bool",
              "name": "paid",
              "type": "bool"
            },
            {
              "internalType": "address payable",
              "name": "beneficiary",
              "type": "address"
            },
            {
              "internalType": "address",
              "name": "proposer",
              "type": "address"
            },
            {
              "internalType": "address",
              "name": "executor",
              "type": "address"
            }
          ],
          "internalType": "struct DAO.ProposalStruct",
          "name": "",
          "type": "tuple"
        }
      ],
      "stateMutability": "view",
      "type": "function"
    },
    {
      "inputs": [],
      "name": "getProposals",
      "outputs": [
        {
          "components": [
            {
              "internalType": "uint256",
              "name": "id",
              "type": "uint256"
            },
            {
              "internalType": "uint256",
              "name": "amount",
              "type": "uint256"
            },
            {
              "internalType": "uint256",
              "name": "duration",
              "type": "uint256"
            },
            {
              "internalType": "uint256",
              "name": "upvotes",
              "type": "uint256"
            },
            {
              "internalType": "uint256",
              "name": "downvotes",
              "type": "uint256"
            },
            {
              "internalType": "string",
              "name": "title",
              "type": "string"
            },
            {
              "internalType": "string",
              "name": "description",
              "type": "string"
            },
            {
              "internalType": "bool",
              "name": "passed",
              "type": "bool"
            },
            {
              "internalType": "bool",
              "name": "paid",
              "type": "bool"
            },
            {
              "internalType": "address payable",
              "name": "beneficiary",
              "type": "address"
            },
            {
              "internalType": "address",
              "name": "proposer",
              "type": "address"
            },
            {
              "internalType": "address",
              "name": "executor",
              "type": "address"
            }
          ],
          "internalType": "struct DAO.ProposalStruct[]",
          "name": "props",
          "type": "tuple[]"
        }
      ],
      "stateMutability": "view",
      "type": "function"
    },
    {
      "inputs": [
        {
          "internalType": "bytes32",
          "name": "role",
          "type": "bytes32"
        }
      ],
      "name": "getRoleAdmin",
      "outputs": [
        {
          "internalType": "bytes32",
          "name": "",
          "type": "bytes32"
        }
      ],
      "stateMutability": "view",
      "type": "function"
    },
    {
      "inputs": [],
      "name": "getStakeholderBalance",
      "outputs": [
        {
          "internalType": "uint256",
          "name": "",
          "type": "uint256"
        }
      ],
      "stateMutability": "view",
      "type": "function"
    },
    {
      "inputs": [],
      "name": "getStakeholderVotes",
      "outputs": [
        {
          "internalType": "uint256[]",
          "name": "",
          "type": "uint256[]"
        }
      ],
      "stateMutability": "view",
      "type": "function"
    },
    {
      "inputs": [
        {
          "internalType": "uint256",
          "name": "proposalId",
          "type": "uint256"
        }
      ],
      "name": "getVotesOf",
      "outputs": [
        {
          "components": [
            {
              "internalType": "address",
              "name": "voter",
              "type": "address"
            },
            {
              "internalType": "uint256",
              "name": "timestamp",
              "type": "uint256"
            },
            {
              "internalType": "bool",
              "name": "chosen",
              "type": "bool"
            }
          ],
          "internalType": "struct DAO.VotedStruct[]",
          "name": "",
          "type": "tuple[]"
        }
      ],
      "stateMutability": "view",
      "type": "function"
    },
    {
      "inputs": [
        {
          "internalType": "bytes32",
          "name": "role",
          "type": "bytes32"
        },
        {
          "internalType": "address",
          "name": "account",
          "type": "address"
        }
      ],
      "name": "grantRole",
      "outputs": [],
      "stateMutability": "nonpayable",
      "type": "function"
    },
    {
      "inputs": [
        {
          "internalType": "bytes32",
          "name": "role",
          "type": "bytes32"
        },
        {
          "internalType": "address",
          "name": "account",
          "type": "address"
        }
      ],
      "name": "hasRole",
      "outputs": [
        {
          "internalType": "bool",
          "name": "",
          "type": "bool"
        }
      ],
      "stateMutability": "view",
      "type": "function"
    },
    {
      "inputs": [],
      "name": "isContributor",
      "outputs": [
        {
          "internalType": "bool",
          "name": "",
          "type": "bool"
        }
      ],
      "stateMutability": "view",
      "type": "function"
    },
    {
      "inputs": [],
      "name": "isStakeholder",
      "outputs": [
        {
          "internalType": "bool",
          "name": "",
          "type": "bool"
        }
      ],
      "stateMutability": "view",
      "type": "function"
    },
    {
      "inputs": [
        {
          "internalType": "uint256",
          "name": "proposalId",
          "type": "uint256"
        }
      ],
      "name": "payBeneficiary",
      "outputs": [
        {
          "internalType": "uint256",
          "name": "",
          "type": "uint256"
        }
      ],
      "stateMutability": "nonpayable",
      "type": "function"
    },
    {
      "inputs": [
        {
          "internalType": "bytes32",
          "name": "role",
          "type": "bytes32"
        },
        {
          "internalType": "address",
          "name": "account",
          "type": "address"
        }
      ],
      "name": "renounceRole",
      "outputs": [],
      "stateMutability": "nonpayable",
      "type": "function"
    },
    {
      "inputs": [
        {
          "internalType": "bytes32",
          "name": "role",
          "type": "bytes32"
        },
        {
          "internalType": "address",
          "name": "account",
          "type": "address"
        }
      ],
      "name": "revokeRole",
      "outputs": [],
      "stateMutability": "nonpayable",
      "type": "function"
    },
    {
      "inputs": [
        {
          "internalType": "bytes4",
          "name": "interfaceId",
          "type": "bytes4"
        }
      ],
      "name": "supportsInterface",
      "outputs": [
        {
          "internalType": "bool",
          "name": "",
          "type": "bool"
        }
      ],
      "stateMutability": "view",
      "type": "function"
    }
  ],
  "bytecode": "0x6101006040527fa0bb1af1c90aa52ed052b92714ff0087008cc720049bf1af77cca2600b31e80c6080908152507ff4bb84e1768dd286358a736d195a0b228621173f655a73b89bf8b191ed0ba07d60a090815250670de0b6b3a764000060c09081525060b463ffffffff1660e09063ffffffff1681525034801561008257600080fd5b50600160008190555060805160a05160c05160e051613f1d610111600039600061117201526000611b460152600081816105c20152818161085301528181610f1901528181610fe5015281816111fb01528181611260015281816114ed0152818161161301528181611acc01528181611bb40152611d770152600081816109cc0152611c350152613f1d6000f3fe60806040526004361061012a5760003560e01c80637cdc2eb7116100ab578063bd9728161161006f578063bd9728161461041a578063c02146ac14610445578063c7f758a814610470578063d547741f146104ad578063d6cc8016146104d6578063d7bb99ba146105015761012a565b80637cdc2eb7146103215780638bfa1f401461034a57806391d1485414610387578063a217fddf146103c4578063a22f1db7146103ef5761012a565b806336568abe116100f257806336568abe1461023a5780633cdb48c21461026357806362564c481461028e57806369a136dc146102b95780636a80d84d146102f65761012a565b806301ffc9a71461012f578063119c37c81461016c57806312065fe0146101a9578063248a9ca3146101d45780632f2ff15d14610211575b600080fd5b34801561013b57600080fd5b50610156600480360381019061015191906126d6565b61050b565b604051610163919061271e565b60405180910390f35b34801561017857600080fd5b50610193600480360381019061018e919061276f565b610585565b6040516101a091906127ab565b60405180910390f35b3480156101b557600080fd5b506101be6108a1565b6040516101cb91906127ab565b60405180910390f35b3480156101e057600080fd5b506101fb60048036038101906101f691906127fc565b6108e8565b6040516102089190612838565b60405180910390f35b34801561021d57600080fd5b50610238600480360381019061023391906128b1565b610908565b005b34801561024657600080fd5b50610261600480360381019061025c91906128b1565b610929565b005b34801561026f57600080fd5b506102786109ac565b60405161028591906127ab565b60405180910390f35b34801561029a57600080fd5b506102a3610a7a565b6040516102b09190612b9c565b60405180910390f35b3480156102c557600080fd5b506102e060048036038101906102db919061276f565b610def565b6040516102ed9190612caf565b60405180910390f35b34801561030257600080fd5b5061030b610edc565b60405161031891906127ab565b60405180910390f35b34801561032d57600080fd5b5061034860048036038101906103439190612e06565b610fc7565b005b34801561035657600080fd5b50610371600480360381019061036c9190612ed1565b61123a565b60405161037e9190612f53565b60405180910390f35b34801561039357600080fd5b506103ae60048036038101906103a991906128b1565b611564565b6040516103bb919061271e565b60405180910390f35b3480156103d057600080fd5b506103d96115cf565b6040516103e69190612838565b60405180910390f35b3480156103fb57600080fd5b506104046115d6565b604051610411919061301d565b60405180910390f35b34801561042657600080fd5b5061042f61170f565b60405161043c91906127ab565b60405180910390f35b34801561045157600080fd5b5061045a611715565b604051610467919061271e565b60405180910390f35b34801561047c57600080fd5b506104976004803603810190610492919061276f565b61175e565b6040516104a4919061314a565b60405180910390f35b3480156104b957600080fd5b506104d460048036038101906104cf91906128b1565b611a1a565b005b3480156104e257600080fd5b506104eb611a3b565b6040516104f8919061271e565b60405180910390f35b610509611a84565b005b60007f7965db0b000000000000000000000000000000000000000000000000000000007bffffffffffffffffffffffffffffffffffffffffffffffffffffffff1916827bffffffffffffffffffffffffffffffffffffffffffffffffffffffff1916148061057e575061057d82611daf565b5b9050919050565b60006040518060400160405280601f81526020017f556e617574686f72697a65643a205374616b65686f6c64657273206f6e6c79008152506105e77f000000000000000000000000000000000000000000000000000000000000000033611564565b8190610629576040517f08c379a000000000000000000000000000000000000000000000000000000000815260040161062091906131b6565b60405180910390fd5b50610632611e19565b600060046000858152602001908152602001600020905080600101546003541015610692576040517f08c379a000000000000000000000000000000000000000000000000000000000815260040161068990613224565b60405180910390fd5b8060070160019054906101000a900460ff16156106e4576040517f08c379a00000000000000000000000000000000000000000000000000000000081526004016106db90613290565b60405180910390fd5b806004015481600301541161072e576040517f08c379a0000000000000000000000000000000000000000000000000000000008152600401610725906132fc565b60405180910390fd5b60018160070160016101000a81548160ff021916908315150217905550338160090160006101000a81548173ffffffffffffffffffffffffffffffffffffffff021916908373ffffffffffffffffffffffffffffffffffffffff1602179055508060010154600360008282546107a4919061334b565b925050819055506107dd8160070160029054906101000a900473ffffffffffffffffffffffffffffffffffffffff168260010154611e68565b508060070160029054906101000a900473ffffffffffffffffffffffffffffffffffffffff1673ffffffffffffffffffffffffffffffffffffffff163373ffffffffffffffffffffffffffffffffffffffff167fa596782d699d74613fcbf59d33e720baabd313d6be9c95e2268f305430305eb77f000000000000000000000000000000000000000000000000000000000000000084600101546040516108859291906133cb565b60405180910390a360035492505061089b611f20565b50919050565b6000600760003373ffffffffffffffffffffffffffffffffffffffff1673ffffffffffffffffffffffffffffffffffffffff16815260200190815260200160002054905090565b600060016000838152602001908152602001600020600101549050919050565b610911826108e8565b61091a81611f2a565b6109248383611f3e565b505050565b61093161201e565b73ffffffffffffffffffffffffffffffffffffffff168173ffffffffffffffffffffffffffffffffffffffff161461099e576040517f08c379a000000000000000000000000000000000000000000000000000000000815260040161099590613479565b60405180910390fd5b6109a88282612026565b5050565b6000604051806060016040528060218152602001613e94602191396109f17f000000000000000000000000000000000000000000000000000000000000000033611564565b8190610a33576040517f08c379a0000000000000000000000000000000000000000000000000000000008152600401610a2a91906131b6565b60405180910390fd5b50600760003373ffffffffffffffffffffffffffffffffffffffff1673ffffffffffffffffffffffffffffffffffffffff1681526020019081526020016000205491505090565b6060600260009054906101000a900463ffffffff1663ffffffff1667ffffffffffffffff811115610aae57610aad612cdb565b5b604051908082528060200260200182016040528015610ae757816020015b610ad461258a565b815260200190600190039081610acc5790505b50905060005b600260009054906101000a900463ffffffff1663ffffffff16811015610deb5760046000828152602001908152602001600020604051806101800160405290816000820154815260200160018201548152602001600282015481526020016003820154815260200160048201548152602001600582018054610b6e906134c8565b80601f0160208091040260200160405190810160405280929190818152602001828054610b9a906134c8565b8015610be75780601f10610bbc57610100808354040283529160200191610be7565b820191906000526020600020905b815481529060010190602001808311610bca57829003601f168201915b50505050508152602001600682018054610c00906134c8565b80601f0160208091040260200160405190810160405280929190818152602001828054610c2c906134c8565b8015610c795780601f10610c4e57610100808354040283529160200191610c79565b820191906000526020600020905b815481529060010190602001808311610c5c57829003601f168201915b505050505081526020016007820160009054906101000a900460ff161515151581526020016007820160019054906101000a900460ff161515151581526020016007820160029054906101000a900473ffffffffffffffffffffffffffffffffffffffff1673ffffffffffffffffffffffffffffffffffffffff1673ffffffffffffffffffffffffffffffffffffffff1681526020016008820160009054906101000a900473ffffffffffffffffffffffffffffffffffffffff1673ffffffffffffffffffffffffffffffffffffffff1673ffffffffffffffffffffffffffffffffffffffff1681526020016009820160009054906101000a900473ffffffffffffffffffffffffffffffffffffffff1673ffffffffffffffffffffffffffffffffffffffff1673ffffffffffffffffffffffffffffffffffffffff1681525050828281518110610dcd57610dcc6134f9565b5b60200260200101819052508080610de390613528565b915050610aed565b5090565b606060066000838152602001908152602001600020805480602002602001604051908101604052809291908181526020016000905b82821015610ed157838290600052602060002090600302016040518060600160405290816000820160009054906101000a900473ffffffffffffffffffffffffffffffffffffffff1673ffffffffffffffffffffffffffffffffffffffff1673ffffffffffffffffffffffffffffffffffffffff168152602001600182015481526020016002820160009054906101000a900460ff16151515158152505081526020019060010190610e24565b505050509050919050565b60006040518060400160405280601f81526020017f556e617574686f72697a65643a206e6f742061207374616b65686f6c64657200815250610f3e7f000000000000000000000000000000000000000000000000000000000000000033611564565b8190610f80576040517f08c379a0000000000000000000000000000000000000000000000000000000008152600401610f7791906131b6565b60405180910390fd5b50600860003373ffffffffffffffffffffffffffffffffffffffff1673ffffffffffffffffffffffffffffffffffffffff1681526020019081526020016000205491505090565b604051806060016040528060338152602001613eb56033913961100a7f000000000000000000000000000000000000000000000000000000000000000033611564565b819061104c576040517f08c379a000000000000000000000000000000000000000000000000000000000815260040161104391906131b6565b60405180910390fd5b5060006002600081819054906101000a900463ffffffff168092919061107190613580565b91906101000a81548163ffffffff021916908363ffffffff16021790555090506000600460008363ffffffff16815260200190815260200160002090508163ffffffff168160000181905550338160080160006101000a81548173ffffffffffffffffffffffffffffffffffffffff021916908373ffffffffffffffffffffffffffffffffffffffff160217905550868160050190816111119190613758565b50858160060190816111239190613758565b50848160070160026101000a81548173ffffffffffffffffffffffffffffffffffffffff021916908373ffffffffffffffffffffffffffffffffffffffff1602179055508381600101819055507f000000000000000000000000000000000000000000000000000000000000000063ffffffff16426111a2919061382a565b81600201819055508473ffffffffffffffffffffffffffffffffffffffff163373ffffffffffffffffffffffffffffffffffffffff167fa596782d699d74613fcbf59d33e720baabd313d6be9c95e2268f305430305eb77f0000000000000000000000000000000000000000000000000000000000000000876040516112299291906138aa565b60405180910390a350505050505050565b611242612631565b604051806060016040528060308152602001613e64603091396112857f000000000000000000000000000000000000000000000000000000000000000033611564565b81906112c7576040517f08c379a00000000000000000000000000000000000000000000000000000000081526004016112be91906131b6565b60405180910390fd5b5060006004600086815260200190815260200160002090506112e881612108565b831561130d5780600301600081548092919061130390613528565b9190505550611328565b80600401600081548092919061132290613528565b91905055505b600560003373ffffffffffffffffffffffffffffffffffffffff1673ffffffffffffffffffffffffffffffffffffffff16815260200190815260200160002081600001549080600181540180825580915050600190039060005260206000200160009091909190915055600660008260000154815260200190815260200160002060405180606001604052803373ffffffffffffffffffffffffffffffffffffffff168152602001428152602001861515815250908060018154018082558091505060019003906000526020600020906003020160009091909190915060008201518160000160006101000a81548173ffffffffffffffffffffffffffffffffffffffff021916908373ffffffffffffffffffffffffffffffffffffffff1602179055506020820151816001015560408201518160020160006101000a81548160ff02191690831515021790555050508060070160029054906101000a900473ffffffffffffffffffffffffffffffffffffffff1673ffffffffffffffffffffffffffffffffffffffff163373ffffffffffffffffffffffffffffffffffffffff167fa596782d699d74613fcbf59d33e720baabd313d6be9c95e2268f305430305eb77f0000000000000000000000000000000000000000000000000000000000000000846001015460405161151f929190613932565b60405180910390a360405180606001604052803373ffffffffffffffffffffffffffffffffffffffff1681526020014281526020018515158152509250505092915050565b60006001600084815260200190815260200160002060000160008373ffffffffffffffffffffffffffffffffffffffff1673ffffffffffffffffffffffffffffffffffffffff16815260200190815260200160002060009054906101000a900460ff16905092915050565b6000801b81565b60606040518060400160405280601f81526020017f556e617574686f72697a65643a206e6f742061207374616b65686f6c646572008152506116387f000000000000000000000000000000000000000000000000000000000000000033611564565b819061167a576040517f08c379a000000000000000000000000000000000000000000000000000000000815260040161167191906131b6565b60405180910390fd5b50600560003373ffffffffffffffffffffffffffffffffffffffff1673ffffffffffffffffffffffffffffffffffffffff16815260200190815260200160002080548060200260200160405190810160405280929190818152602001828054801561170457602002820191906000526020600020905b8154815260200190600101908083116116f0575b505050505091505090565b60035481565b600080600860003373ffffffffffffffffffffffffffffffffffffffff1673ffffffffffffffffffffffffffffffffffffffff1681526020019081526020016000205411905090565b61176661258a565b600460008381526020019081526020016000206040518061018001604052908160008201548152602001600182015481526020016002820154815260200160038201548152602001600482015481526020016005820180546117c7906134c8565b80601f01602080910402602001604051908101604052809291908181526020018280546117f3906134c8565b80156118405780601f1061181557610100808354040283529160200191611840565b820191906000526020600020905b81548152906001019060200180831161182357829003601f168201915b50505050508152602001600682018054611859906134c8565b80601f0160208091040260200160405190810160405280929190818152602001828054611885906134c8565b80156118d25780601f106118a7576101008083540402835291602001916118d2565b820191906000526020600020905b8154815290600101906020018083116118b557829003601f168201915b505050505081526020016007820160009054906101000a900460ff161515151581526020016007820160019054906101000a900460ff161515151581526020016007820160029054906101000a900473ffffffffffffffffffffffffffffffffffffffff1673ffffffffffffffffffffffffffffffffffffffff1673ffffffffffffffffffffffffffffffffffffffff1681526020016008820160009054906101000a900473ffffffffffffffffffffffffffffffffffffffff1673ffffffffffffffffffffffffffffffffffffffff1673ffffffffffffffffffffffffffffffffffffffff1681526020016009820160009054906101000a900473ffffffffffffffffffffffffffffffffffffffff1673ffffffffffffffffffffffffffffffffffffffff1673ffffffffffffffffffffffffffffffffffffffff16815250509050919050565b611a23826108e8565b611a2c81611f2a565b611a368383612026565b505050565b600080600760003373ffffffffffffffffffffffffffffffffffffffff1673ffffffffffffffffffffffffffffffffffffffff1681526020019081526020016000205411905090565b60003411611ac7576040517f08c379a0000000000000000000000000000000000000000000000000000000008152600401611abe906139e0565b60405180910390fd5b611af17f000000000000000000000000000000000000000000000000000000000000000033611564565b611c6057600034600760003373ffffffffffffffffffffffffffffffffffffffff1673ffffffffffffffffffffffffffffffffffffffff16815260200190815260200160002054611b42919061382a565b90507f00000000000000000000000000000000000000000000000000000000000000008110611bda5780600860003373ffffffffffffffffffffffffffffffffffffffff1673ffffffffffffffffffffffffffffffffffffffff16815260200190815260200160002081905550611bd97f000000000000000000000000000000000000000000000000000000000000000033611f3e565b5b34600760003373ffffffffffffffffffffffffffffffffffffffff1673ffffffffffffffffffffffffffffffffffffffff1681526020019081526020016000206000828254611c29919061382a565b92505081905550611c5a7f000000000000000000000000000000000000000000000000000000000000000033611f3e565b50611d0d565b34600760003373ffffffffffffffffffffffffffffffffffffffff1673ffffffffffffffffffffffffffffffffffffffff1681526020019081526020016000206000828254611caf919061382a565b9250508190555034600860003373ffffffffffffffffffffffffffffffffffffffff1673ffffffffffffffffffffffffffffffffffffffff1681526020019081526020016000206000828254611d05919061382a565b925050819055505b3460036000828254611d1f919061382a565b925050819055503073ffffffffffffffffffffffffffffffffffffffff163373ffffffffffffffffffffffffffffffffffffffff167fa596782d699d74613fcbf59d33e720baabd313d6be9c95e2268f305430305eb77f000000000000000000000000000000000000000000000000000000000000000034604051611da5929190613a4c565b60405180910390a3565b60007f01ffc9a7000000000000000000000000000000000000000000000000000000007bffffffffffffffffffffffffffffffffffffffffffffffffffffffff1916827bffffffffffffffffffffffffffffffffffffffffffffffffffffffff1916149050919050565b600260005403611e5e576040517f08c379a0000000000000000000000000000000000000000000000000000000008152600401611e5590613ad4565b60405180910390fd5b6002600081905550565b6000808373ffffffffffffffffffffffffffffffffffffffff1683604051611e8f90613b25565b60006040518083038185875af1925050503d8060008114611ecc576040519150601f19603f3d011682016040523d82523d6000602084013e611ed1565b606091505b5050905080611f15576040517f08c379a0000000000000000000000000000000000000000000000000000000008152600401611f0c90613b86565b60405180910390fd5b600191505092915050565b6001600081905550565b611f3b81611f3661201e565b61229c565b50565b611f488282611564565b61201a57600180600084815260200190815260200160002060000160008373ffffffffffffffffffffffffffffffffffffffff1673ffffffffffffffffffffffffffffffffffffffff16815260200190815260200160002060006101000a81548160ff021916908315150217905550611fbf61201e565b73ffffffffffffffffffffffffffffffffffffffff168173ffffffffffffffffffffffffffffffffffffffff16837f2f8788117e7eff1d82e926ec794901d17c78024a50270940304540a733656f0d60405160405180910390a45b5050565b600033905090565b6120308282611564565b156121045760006001600084815260200190815260200160002060000160008373ffffffffffffffffffffffffffffffffffffffff1673ffffffffffffffffffffffffffffffffffffffff16815260200190815260200160002060006101000a81548160ff0219169083151502179055506120a961201e565b73ffffffffffffffffffffffffffffffffffffffff168173ffffffffffffffffffffffffffffffffffffffff16837ff6391f5c32d9c69d2a47ea670b442974b53935d1edc7fd64eb21e047a839171b60405160405180910390a45b5050565b8060070160009054906101000a900460ff1680612129575042816002015411155b156121865760018160070160006101000a81548160ff0219169083151502179055506040517f08c379a000000000000000000000000000000000000000000000000000000000815260040161217d90613bf2565b60405180910390fd5b6000600560003373ffffffffffffffffffffffffffffffffffffffff1673ffffffffffffffffffffffffffffffffffffffff16815260200190815260200160002080548060200260200160405190810160405280929190818152602001828054801561221157602002820191906000526020600020905b8154815260200190600101908083116121fd575b5050505050905060005b815181101561229757818181518110612237576122366134f9565b5b6020026020010151836000015403612284576040517f08c379a000000000000000000000000000000000000000000000000000000000815260040161227b90613c5e565b60405180910390fd5b808061228f90613528565b91505061221b565b505050565b6122a68282611564565b61231d576122b381612321565b6122c18360001c602061234e565b6040516020016122d2929190613d52565b6040516020818303038152906040526040517f08c379a000000000000000000000000000000000000000000000000000000000815260040161231491906131b6565b60405180910390fd5b5050565b60606123478273ffffffffffffffffffffffffffffffffffffffff16601460ff1661234e565b9050919050565b6060600060028360026123619190613d8c565b61236b919061382a565b67ffffffffffffffff81111561238457612383612cdb565b5b6040519080825280601f01601f1916602001820160405280156123b65781602001600182028036833780820191505090505b5090507f3000000000000000000000000000000000000000000000000000000000000000816000815181106123ee576123ed6134f9565b5b60200101907effffffffffffffffffffffffffffffffffffffffffffffffffffffffffffff1916908160001a9053507f780000000000000000000000000000000000000000000000000000000000000081600181518110612452576124516134f9565b5b60200101907effffffffffffffffffffffffffffffffffffffffffffffffffffffffffffff1916908160001a905350600060018460026124929190613d8c565b61249c919061382a565b90505b600181111561253c577f3031323334353637383961626364656600000000000000000000000000000000600f8616601081106124de576124dd6134f9565b5b1a60f81b8282815181106124f5576124f46134f9565b5b60200101907effffffffffffffffffffffffffffffffffffffffffffffffffffffffffffff1916908160001a905350600485901c94508061253590613dce565b905061249f565b5060008414612580576040517f08c379a000000000000000000000000000000000000000000000000000000000815260040161257790613e43565b60405180910390fd5b8091505092915050565b60405180610180016040528060008152602001600081526020016000815260200160008152602001600081526020016060815260200160608152602001600015158152602001600015158152602001600073ffffffffffffffffffffffffffffffffffffffff168152602001600073ffffffffffffffffffffffffffffffffffffffff168152602001600073ffffffffffffffffffffffffffffffffffffffff1681525090565b6040518060600160405280600073ffffffffffffffffffffffffffffffffffffffff168152602001600081526020016000151581525090565b6000604051905090565b600080fd5b600080fd5b60007fffffffff0000000000000000000000000000000000000000000000000000000082169050919050565b6126b38161267e565b81146126be57600080fd5b50565b6000813590506126d0816126aa565b92915050565b6000602082840312156126ec576126eb612674565b5b60006126fa848285016126c1565b91505092915050565b60008115159050919050565b61271881612703565b82525050565b6000602082019050612733600083018461270f565b92915050565b6000819050919050565b61274c81612739565b811461275757600080fd5b50565b60008135905061276981612743565b92915050565b60006020828403121561278557612784612674565b5b60006127938482850161275a565b91505092915050565b6127a581612739565b82525050565b60006020820190506127c0600083018461279c565b92915050565b6000819050919050565b6127d9816127c6565b81146127e457600080fd5b50565b6000813590506127f6816127d0565b92915050565b60006020828403121561281257612811612674565b5b6000612820848285016127e7565b91505092915050565b612832816127c6565b82525050565b600060208201905061284d6000830184612829565b92915050565b600073ffffffffffffffffffffffffffffffffffffffff82169050919050565b600061287e82612853565b9050919050565b61288e81612873565b811461289957600080fd5b50565b6000813590506128ab81612885565b92915050565b600080604083850312156128c8576128c7612674565b5b60006128d6858286016127e7565b92505060206128e78582860161289c565b9150509250929050565b600081519050919050565b600082825260208201905092915050565b6000819050602082019050919050565b61292681612739565b82525050565b600081519050919050565b600082825260208201905092915050565b60005b8381101561296657808201518184015260208101905061294b565b60008484015250505050565b6000601f19601f8301169050919050565b600061298e8261292c565b6129988185612937565b93506129a8818560208601612948565b6129b181612972565b840191505092915050565b6129c581612703565b82525050565b60006129d682612853565b9050919050565b6129e6816129cb565b82525050565b6129f581612873565b82525050565b600061018083016000830151612a14600086018261291d565b506020830151612a27602086018261291d565b506040830151612a3a604086018261291d565b506060830151612a4d606086018261291d565b506080830151612a60608086018261291d565b5060a083015184820360a0860152612a788282612983565b91505060c083015184820360c0860152612a928282612983565b91505060e0830151612aa760e08601826129bc565b50610100830151612abc6101008601826129bc565b50610120830151612ad16101208601826129dd565b50610140830151612ae66101408601826129ec565b50610160830151612afb6101608601826129ec565b508091505092915050565b6000612b1283836129fb565b905092915050565b6000602082019050919050565b6000612b32826128f1565b612b3c81856128fc565b935083602082028501612b4e8561290d565b8060005b85811015612b8a5784840389528151612b6b8582612b06565b9450612b7683612b1a565b925060208a01995050600181019050612b52565b50829750879550505050505092915050565b60006020820190508181036000830152612bb68184612b27565b905092915050565b600081519050919050565b600082825260208201905092915050565b6000819050602082019050919050565b606082016000820151612c0060008501826129ec565b506020820151612c13602085018261291d565b506040820151612c2660408501826129bc565b50505050565b6000612c388383612bea565b60608301905092915050565b6000602082019050919050565b6000612c5c82612bbe565b612c668185612bc9565b9350612c7183612bda565b8060005b83811015612ca2578151612c898882612c2c565b9750612c9483612c44565b925050600181019050612c75565b5085935050505092915050565b60006020820190508181036000830152612cc98184612c51565b905092915050565b600080fd5b600080fd5b7f4e487b7100000000000000000000000000000000000000000000000000000000600052604160045260246000fd5b612d1382612972565b810181811067ffffffffffffffff82111715612d3257612d31612cdb565b5b80604052505050565b6000612d4561266a565b9050612d518282612d0a565b919050565b600067ffffffffffffffff821115612d7157612d70612cdb565b5b612d7a82612972565b9050602081019050919050565b82818337600083830152505050565b6000612da9612da484612d56565b612d3b565b905082815260208101848484011115612dc557612dc4612cd6565b5b612dd0848285612d87565b509392505050565b600082601f830112612ded57612dec612cd1565b5b8135612dfd848260208601612d96565b91505092915050565b60008060008060808587031215612e2057612e1f612674565b5b600085013567ffffffffffffffff811115612e3e57612e3d612679565b5b612e4a87828801612dd8565b945050602085013567ffffffffffffffff811115612e6b57612e6a612679565b5b612e7787828801612dd8565b9350506040612e888782880161289c565b9250506060612e998782880161275a565b91505092959194509250565b612eae81612703565b8114612eb957600080fd5b50565b600081359050612ecb81612ea5565b92915050565b60008060408385031215612ee857612ee7612674565b5b6000612ef68582860161275a565b9250506020612f0785828601612ebc565b9150509250929050565b606082016000820151612f2760008501826129ec565b506020820151612f3a602085018261291d565b506040820151612f4d60408501826129bc565b50505050565b6000606082019050612f686000830184612f11565b92915050565b600081519050919050565b600082825260208201905092915050565b6000819050602082019050919050565b6000612fa6838361291d565b60208301905092915050565b6000602082019050919050565b6000612fca82612f6e565b612fd48185612f79565b9350612fdf83612f8a565b8060005b83811015613010578151612ff78882612f9a565b975061300283612fb2565b925050600181019050612fe3565b5085935050505092915050565b600060208201905081810360008301526130378184612fbf565b905092915050565b600061018083016000830151613058600086018261291d565b50602083015161306b602086018261291d565b50604083015161307e604086018261291d565b506060830151613091606086018261291d565b5060808301516130a4608086018261291d565b5060a083015184820360a08601526130bc8282612983565b91505060c083015184820360c08601526130d68282612983565b91505060e08301516130eb60e08601826129bc565b506101008301516131006101008601826129bc565b506101208301516131156101208601826129dd565b5061014083015161312a6101408601826129ec565b5061016083015161313f6101608601826129ec565b508091505092915050565b60006020820190508181036000830152613164818461303f565b905092915050565b600082825260208201905092915050565b60006131888261292c565b613192818561316c565b93506131a2818560208601612948565b6131ab81612972565b840191505092915050565b600060208201905081810360008301526131d0818461317d565b905092915050565b7f496e73756666696369656e742066756e64000000000000000000000000000000600082015250565b600061320e60118361316c565b9150613219826131d8565b602082019050919050565b6000602082019050818103600083015261323d81613201565b9050919050565b7f5061796d656e742073656e74206265666f726500000000000000000000000000600082015250565b600061327a60138361316c565b915061328582613244565b602082019050919050565b600060208201905081810360008301526132a98161326d565b9050919050565b7f496e73756666696369656e7420766f7465730000000000000000000000000000600082015250565b60006132e660128361316c565b91506132f1826132b0565b602082019050919050565b60006020820190508181036000830152613315816132d9565b9050919050565b7f4e487b7100000000000000000000000000000000000000000000000000000000600052601160045260246000fd5b600061335682612739565b915061336183612739565b92508282039050818111156133795761337861331c565b5b92915050565b7f5041594d454e54205452414e5346455245440000000000000000000000000000600082015250565b60006133b560128361316c565b91506133c08261337f565b602082019050919050565b60006060820190506133e06000830185612829565b81810360208301526133f1816133a8565b9050613400604083018461279c565b9392505050565b7f416363657373436f6e74726f6c3a2063616e206f6e6c792072656e6f756e636560008201527f20726f6c657320666f722073656c660000000000000000000000000000000000602082015250565b6000613463602f8361316c565b915061346e82613407565b604082019050919050565b6000602082019050818103600083015261349281613456565b9050919050565b7f4e487b7100000000000000000000000000000000000000000000000000000000600052602260045260246000fd5b600060028204905060018216806134e057607f821691505b6020821081036134f3576134f2613499565b5b50919050565b7f4e487b7100000000000000000000000000000000000000000000000000000000600052603260045260246000fd5b600061353382612739565b91507fffffffffffffffffffffffffffffffffffffffffffffffffffffffffffffffff82036135655761356461331c565b5b600182019050919050565b600063ffffffff82169050919050565b600061358b82613570565b915063ffffffff82036135a1576135a061331c565b5b600182019050919050565b60008190508160005260206000209050919050565b60006020601f8301049050919050565b600082821b905092915050565b60006008830261360e7fffffffffffffffffffffffffffffffffffffffffffffffffffffffffffffffff826135d1565b61361886836135d1565b95508019841693508086168417925050509392505050565b6000819050919050565b600061365561365061364b84612739565b613630565b612739565b9050919050565b6000819050919050565b61366f8361363a565b61368361367b8261365c565b8484546135de565b825550505050565b600090565b61369861368b565b6136a3818484613666565b505050565b5b818110156136c7576136bc600082613690565b6001810190506136a9565b5050565b601f82111561370c576136dd816135ac565b6136e6846135c1565b810160208510156136f5578190505b613709613701856135c1565b8301826136a8565b50505b505050565b600082821c905092915050565b600061372f60001984600802613711565b1980831691505092915050565b6000613748838361371e565b9150826002028217905092915050565b6137618261292c565b67ffffffffffffffff81111561377a57613779612cdb565b5b61378482546134c8565b61378f8282856136cb565b600060209050601f8311600181146137c257600084156137b0578287015190505b6137ba858261373c565b865550613822565b601f1984166137d0866135ac565b60005b828110156137f8578489015182556001820191506020850194506020810190506137d3565b868310156138155784890151613811601f89168261371e565b8355505b6001600288020188555050505b505050505050565b600061383582612739565b915061384083612739565b92508282019050808211156138585761385761331c565b5b92915050565b7f50524f504f53414c205241495345440000000000000000000000000000000000600082015250565b6000613894600f8361316c565b915061389f8261385e565b602082019050919050565b60006060820190506138bf6000830185612829565b81810360208301526138d081613887565b90506138df604083018461279c565b9392505050565b7f50524f504f53414c20564f544500000000000000000000000000000000000000600082015250565b600061391c600d8361316c565b9150613927826138e6565b602082019050919050565b60006060820190506139476000830185612829565b81810360208301526139588161390f565b9050613967604083018461279c565b9392505050565b7f436f6e747269627574696e67207a65726f206973206e6f7420616c6c6f77656460008201527f2e00000000000000000000000000000000000000000000000000000000000000602082015250565b60006139ca60218361316c565b91506139d58261396e565b604082019050919050565b600060208201905081810360008301526139f9816139bd565b9050919050565b7f434f4e545249425554494f4e2052454345495645440000000000000000000000600082015250565b6000613a3660158361316c565b9150613a4182613a00565b602082019050919050565b6000606082019050613a616000830185612829565b8181036020830152613a7281613a29565b9050613a81604083018461279c565b9392505050565b7f5265656e7472616e637947756172643a207265656e7472616e742063616c6c00600082015250565b6000613abe601f8361316c565b9150613ac982613a88565b602082019050919050565b60006020820190508181036000830152613aed81613ab1565b9050919050565b600081905092915050565b50565b6000613b0f600083613af4565b9150613b1a82613aff565b600082019050919050565b6000613b3082613b02565b9150819050919050565b7f5061796d656e74206661696c6564000000000000000000000000000000000000600082015250565b6000613b70600e8361316c565b9150613b7b82613b3a565b602082019050919050565b60006020820190508181036000830152613b9f81613b63565b9050919050565b7f70726f706f73616c206475726174696f6e206578706972656400000000000000600082015250565b6000613bdc60198361316c565b9150613be782613ba6565b602082019050919050565b60006020820190508181036000830152613c0b81613bcf565b9050919050565b7f446f75626c6520766f74696e67206e6f7420616c6c6f77656400000000000000600082015250565b6000613c4860198361316c565b9150613c5382613c12565b602082019050919050565b60006020820190508181036000830152613c7781613c3b565b9050919050565b600081905092915050565b7f416363657373436f6e74726f6c3a206163636f756e7420000000000000000000600082015250565b6000613cbf601783613c7e565b9150613cca82613c89565b601782019050919050565b6000613ce08261292c565b613cea8185613c7e565b9350613cfa818560208601612948565b80840191505092915050565b7f206973206d697373696e6720726f6c6520000000000000000000000000000000600082015250565b6000613d3c601183613c7e565b9150613d4782613d06565b601182019050919050565b6000613d5d82613cb2565b9150613d698285613cd5565b9150613d7482613d2f565b9150613d808284613cd5565b91508190509392505050565b6000613d9782612739565b9150613da283612739565b9250828202613db081612739565b91508282048414831517613dc757613dc661331c565b5b5092915050565b6000613dd982612739565b915060008203613dec57613deb61331c565b5b600182039050919050565b7f537472696e67733a20686578206c656e67746820696e73756666696369656e74600082015250565b6000613e2d60208361316c565b9150613e3882613df7565b602082019050919050565b60006020820190508181036000830152613e5c81613e20565b905091905056fe556e617574686f72697a6564206163636573733a205374616b65686f6c64657273206f6e6c79207065726d697474656444656e6965643a2055736572206973206e6f74206120636f6e7472696275746f7270726f706f73616c206372656174696f6e20616c6c6f77656420666f7220746865207374616b65686f6c64657273206f6e6c79a26469706673582212204dee9681fbba41586260febaf9cf692be6bccd65f7922c4e604b51da9733df5564736f6c63430008110033",
  "linkReferences": {},
  "deployedLinkReferences": {}
}